{
  "_format": "hh-sol-artifact-1",
  "contractName": "TwelveKnights",
  "sourceName": "contracts/TwelveKnights.sol",
  "abi": [
    {
      "inputs": [
        {
          "internalType": "address",
          "name": "_artist",
          "type": "address"
        }
      ],
      "stateMutability": "nonpayable",
      "type": "constructor"
    },
    {
      "inputs": [],
      "name": "ApprovalCallerNotOwnerNorApproved",
      "type": "error"
    },
    {
      "inputs": [],
      "name": "ApprovalQueryForNonexistentToken",
      "type": "error"
    },
    {
      "inputs": [],
      "name": "BalanceQueryForZeroAddress",
      "type": "error"
    },
    {
      "inputs": [],
      "name": "MintERC2309QuantityExceedsLimit",
      "type": "error"
    },
    {
      "inputs": [],
      "name": "MintToZeroAddress",
      "type": "error"
    },
    {
      "inputs": [],
      "name": "MintZeroQuantity",
      "type": "error"
    },
    {
      "inputs": [],
      "name": "OwnerQueryForNonexistentToken",
      "type": "error"
    },
    {
      "inputs": [],
      "name": "OwnershipNotInitializedForExtraData",
      "type": "error"
    },
    {
      "inputs": [],
      "name": "TransferCallerNotOwnerNorApproved",
      "type": "error"
    },
    {
      "inputs": [],
      "name": "TransferFromIncorrectOwner",
      "type": "error"
    },
    {
      "inputs": [],
      "name": "TransferToNonERC721ReceiverImplementer",
      "type": "error"
    },
    {
      "inputs": [],
      "name": "TransferToZeroAddress",
      "type": "error"
    },
    {
      "inputs": [],
      "name": "URIQueryForNonexistentToken",
      "type": "error"
    },
    {
      "anonymous": false,
      "inputs": [
        {
          "indexed": true,
          "internalType": "address",
          "name": "owner",
          "type": "address"
        },
        {
          "indexed": true,
          "internalType": "address",
          "name": "approved",
          "type": "address"
        },
        {
          "indexed": true,
          "internalType": "uint256",
          "name": "tokenId",
          "type": "uint256"
        }
      ],
      "name": "Approval",
      "type": "event"
    },
    {
      "anonymous": false,
      "inputs": [
        {
          "indexed": true,
          "internalType": "address",
          "name": "owner",
          "type": "address"
        },
        {
          "indexed": true,
          "internalType": "address",
          "name": "operator",
          "type": "address"
        },
        {
          "indexed": false,
          "internalType": "bool",
          "name": "approved",
          "type": "bool"
        }
      ],
      "name": "ApprovalForAll",
      "type": "event"
    },
    {
      "anonymous": false,
      "inputs": [
        {
          "indexed": true,
          "internalType": "uint256",
          "name": "fromTokenId",
          "type": "uint256"
        },
        {
          "indexed": false,
          "internalType": "uint256",
          "name": "toTokenId",
          "type": "uint256"
        },
        {
          "indexed": true,
          "internalType": "address",
          "name": "from",
          "type": "address"
        },
        {
          "indexed": true,
          "internalType": "address",
          "name": "to",
          "type": "address"
        }
      ],
      "name": "ConsecutiveTransfer",
      "type": "event"
    },
    {
      "anonymous": false,
      "inputs": [
        {
          "indexed": true,
          "internalType": "address",
          "name": "previousOwner",
          "type": "address"
        },
        {
          "indexed": true,
          "internalType": "address",
          "name": "newOwner",
          "type": "address"
        }
      ],
      "name": "OwnershipTransferred",
      "type": "event"
    },
    {
      "anonymous": false,
      "inputs": [
        {
          "indexed": true,
          "internalType": "address",
          "name": "from",
          "type": "address"
        },
        {
          "indexed": true,
          "internalType": "address",
          "name": "to",
          "type": "address"
        },
        {
          "indexed": true,
          "internalType": "uint256",
          "name": "tokenId",
          "type": "uint256"
        }
      ],
      "name": "Transfer",
      "type": "event"
    },
    {
      "inputs": [],
      "name": "MAX_PUBLIC_MINT",
      "outputs": [
        {
          "internalType": "uint256",
          "name": "",
          "type": "uint256"
        }
      ],
      "stateMutability": "view",
      "type": "function"
    },
    {
      "inputs": [],
      "name": "MAX_WHITELIST_MINT",
      "outputs": [
        {
          "internalType": "uint256",
          "name": "",
          "type": "uint256"
        }
      ],
      "stateMutability": "view",
      "type": "function"
    },
    {
      "inputs": [],
      "name": "PUBLIC_SALE_PRICE",
      "outputs": [
        {
          "internalType": "uint256",
          "name": "",
          "type": "uint256"
        }
      ],
      "stateMutability": "view",
      "type": "function"
    },
    {
      "inputs": [],
      "name": "WHITELIST_SALE_PRICE",
      "outputs": [
        {
          "internalType": "uint256",
          "name": "",
          "type": "uint256"
        }
      ],
      "stateMutability": "view",
      "type": "function"
    },
    {
      "inputs": [
        {
          "internalType": "address",
          "name": "to",
          "type": "address"
        },
        {
          "internalType": "uint256",
          "name": "tokenId",
          "type": "uint256"
        }
      ],
      "name": "approve",
      "outputs": [],
      "stateMutability": "payable",
      "type": "function"
    },
    {
      "inputs": [],
      "name": "artist",
      "outputs": [
        {
          "internalType": "address",
          "name": "",
          "type": "address"
        }
      ],
      "stateMutability": "view",
      "type": "function"
    },
    {
      "inputs": [
        {
          "internalType": "address",
          "name": "owner",
          "type": "address"
        }
      ],
      "name": "balanceOf",
      "outputs": [
        {
          "internalType": "uint256",
          "name": "",
          "type": "uint256"
        }
      ],
      "stateMutability": "view",
      "type": "function"
    },
    {
      "inputs": [],
      "name": "baseExtension",
      "outputs": [
        {
          "internalType": "string",
          "name": "",
          "type": "string"
        }
      ],
      "stateMutability": "view",
      "type": "function"
    },
    {
      "inputs": [],
      "name": "baseURI",
      "outputs": [
        {
          "internalType": "string",
          "name": "",
          "type": "string"
        }
      ],
      "stateMutability": "view",
      "type": "function"
    },
    {
      "inputs": [
        {
          "internalType": "uint256",
          "name": "tokenId",
          "type": "uint256"
        }
      ],
      "name": "getApproved",
      "outputs": [
        {
          "internalType": "address",
          "name": "",
          "type": "address"
        }
      ],
      "stateMutability": "view",
      "type": "function"
    },
    {
      "inputs": [
        {
          "internalType": "uint256",
          "name": "_mintAmount",
          "type": "uint256"
        },
        {
          "internalType": "address",
          "name": "destination",
          "type": "address"
        }
      ],
      "name": "gift",
      "outputs": [],
      "stateMutability": "nonpayable",
      "type": "function"
    },
    {
      "inputs": [
        {
          "internalType": "address",
          "name": "owner",
          "type": "address"
        },
        {
          "internalType": "address",
          "name": "operator",
          "type": "address"
        }
      ],
      "name": "isApprovedForAll",
      "outputs": [
        {
          "internalType": "bool",
          "name": "",
          "type": "bool"
        }
      ],
      "stateMutability": "view",
      "type": "function"
    },
    {
      "inputs": [],
      "name": "maxSupply",
      "outputs": [
        {
          "internalType": "uint256",
          "name": "",
          "type": "uint256"
        }
      ],
      "stateMutability": "view",
      "type": "function"
    },
    {
      "inputs": [],
      "name": "merkleRoot",
      "outputs": [
        {
          "internalType": "bytes32",
          "name": "",
          "type": "bytes32"
        }
      ],
      "stateMutability": "view",
      "type": "function"
    },
    {
      "inputs": [],
      "name": "name",
      "outputs": [
        {
          "internalType": "string",
          "name": "",
          "type": "string"
        }
      ],
      "stateMutability": "view",
      "type": "function"
    },
    {
      "inputs": [],
      "name": "notRevealedUri",
      "outputs": [
        {
          "internalType": "string",
          "name": "",
          "type": "string"
        }
      ],
      "stateMutability": "view",
      "type": "function"
    },
    {
      "inputs": [
        {
          "internalType": "address",
          "name": "owner",
          "type": "address"
        }
      ],
      "name": "numberMinted",
      "outputs": [
        {
          "internalType": "uint256",
          "name": "",
          "type": "uint256"
        }
      ],
      "stateMutability": "view",
      "type": "function"
    },
    {
      "inputs": [],
      "name": "owner",
      "outputs": [
        {
          "internalType": "address",
          "name": "",
          "type": "address"
        }
      ],
      "stateMutability": "view",
      "type": "function"
    },
    {
      "inputs": [
        {
          "internalType": "uint256",
          "name": "tokenId",
          "type": "uint256"
        }
      ],
      "name": "ownerOf",
      "outputs": [
        {
          "internalType": "address",
          "name": "",
          "type": "address"
        }
      ],
      "stateMutability": "view",
      "type": "function"
    },
    {
      "inputs": [
        {
          "internalType": "bool",
          "name": "_state",
          "type": "bool"
        }
      ],
      "name": "pause",
      "outputs": [],
      "stateMutability": "nonpayable",
      "type": "function"
    },
    {
      "inputs": [],
      "name": "paused",
      "outputs": [
        {
          "internalType": "bool",
          "name": "",
          "type": "bool"
        }
      ],
      "stateMutability": "view",
      "type": "function"
    },
    {
      "inputs": [],
      "name": "publicSale",
      "outputs": [
        {
          "internalType": "bool",
          "name": "",
          "type": "bool"
        }
      ],
      "stateMutability": "view",
      "type": "function"
    },
    {
      "inputs": [
        {
          "internalType": "uint256",
          "name": "tokens",
          "type": "uint256"
        }
      ],
      "name": "publicSaleMint",
      "outputs": [],
      "stateMutability": "payable",
      "type": "function"
    },
    {
      "inputs": [],
      "name": "renounceOwnership",
      "outputs": [],
      "stateMutability": "nonpayable",
      "type": "function"
    },
    {
      "inputs": [
        {
          "internalType": "bool",
          "name": "_state",
          "type": "bool"
        }
      ],
      "name": "reveal",
      "outputs": [],
      "stateMutability": "nonpayable",
      "type": "function"
    },
    {
      "inputs": [],
      "name": "revealed",
      "outputs": [
        {
          "internalType": "bool",
          "name": "",
          "type": "bool"
        }
      ],
      "stateMutability": "view",
      "type": "function"
    },
    {
      "inputs": [
        {
          "internalType": "address",
          "name": "from",
          "type": "address"
        },
        {
          "internalType": "address",
          "name": "to",
          "type": "address"
        },
        {
          "internalType": "uint256",
          "name": "tokenId",
          "type": "uint256"
        }
      ],
      "name": "safeTransferFrom",
      "outputs": [],
      "stateMutability": "payable",
      "type": "function"
    },
    {
      "inputs": [
        {
          "internalType": "address",
          "name": "from",
          "type": "address"
        },
        {
          "internalType": "address",
          "name": "to",
          "type": "address"
        },
        {
          "internalType": "uint256",
          "name": "tokenId",
          "type": "uint256"
        },
        {
          "internalType": "bytes",
          "name": "_data",
          "type": "bytes"
        }
      ],
      "name": "safeTransferFrom",
      "outputs": [],
      "stateMutability": "payable",
      "type": "function"
    },
    {
      "inputs": [
        {
          "internalType": "address",
          "name": "operator",
          "type": "address"
        },
        {
          "internalType": "bool",
          "name": "approved",
          "type": "bool"
        }
      ],
      "name": "setApprovalForAll",
      "outputs": [],
      "stateMutability": "nonpayable",
      "type": "function"
    },
    {
      "inputs": [
        {
          "internalType": "string",
          "name": "_newBaseExtension",
          "type": "string"
        }
      ],
      "name": "setBaseExtension",
      "outputs": [],
      "stateMutability": "nonpayable",
      "type": "function"
    },
    {
      "inputs": [
        {
          "internalType": "string",
          "name": "_newBaseURI",
          "type": "string"
        }
      ],
      "name": "setBaseURI",
      "outputs": [],
      "stateMutability": "nonpayable",
      "type": "function"
    },
    {
      "inputs": [
        {
          "internalType": "uint256",
          "name": "_limit",
          "type": "uint256"
        }
      ],
      "name": "setMAX_PUBLIC_MINT",
      "outputs": [],
      "stateMutability": "nonpayable",
      "type": "function"
    },
    {
      "inputs": [
        {
          "internalType": "uint256",
          "name": "_limit",
          "type": "uint256"
        }
      ],
      "name": "setMAX_WHITELIST_MINT",
      "outputs": [],
      "stateMutability": "nonpayable",
      "type": "function"
    },
    {
      "inputs": [
        {
          "internalType": "uint256",
          "name": "_newsupply",
          "type": "uint256"
        }
      ],
      "name": "setMaxsupply",
      "outputs": [],
      "stateMutability": "nonpayable",
      "type": "function"
    },
    {
      "inputs": [
        {
          "internalType": "bytes32",
          "name": "_merkleRoot",
          "type": "bytes32"
        }
      ],
      "name": "setMerkleRoot",
      "outputs": [],
      "stateMutability": "nonpayable",
      "type": "function"
    },
    {
      "inputs": [
        {
          "internalType": "string",
          "name": "_notRevealedURI",
          "type": "string"
        }
      ],
      "name": "setNotRevealedURI",
      "outputs": [],
      "stateMutability": "nonpayable",
      "type": "function"
    },
    {
      "inputs": [
        {
          "internalType": "uint256",
          "name": "_newCost",
          "type": "uint256"
        }
      ],
      "name": "setPUBLIC_SALE_PRICE",
      "outputs": [],
      "stateMutability": "nonpayable",
      "type": "function"
    },
    {
      "inputs": [
        {
          "internalType": "uint256",
          "name": "_newCost",
          "type": "uint256"
        }
      ],
      "name": "setWHITELIST_SALE_PRICE",
      "outputs": [],
      "stateMutability": "nonpayable",
      "type": "function"
    },
    {
      "inputs": [
        {
          "internalType": "bytes4",
          "name": "interfaceId",
          "type": "bytes4"
        }
      ],
      "name": "supportsInterface",
      "outputs": [
        {
          "internalType": "bool",
          "name": "",
          "type": "bool"
        }
      ],
      "stateMutability": "view",
      "type": "function"
    },
    {
      "inputs": [],
      "name": "symbol",
      "outputs": [
        {
          "internalType": "string",
          "name": "",
          "type": "string"
        }
      ],
      "stateMutability": "view",
      "type": "function"
    },
    {
      "inputs": [],
      "name": "teamMint",
      "outputs": [],
      "stateMutability": "nonpayable",
      "type": "function"
    },
    {
      "inputs": [],
      "name": "teamMinted",
      "outputs": [
        {
          "internalType": "bool",
          "name": "",
          "type": "bool"
        }
      ],
      "stateMutability": "view",
      "type": "function"
    },
    {
      "inputs": [
        {
          "internalType": "bool",
          "name": "_state",
          "type": "bool"
        }
      ],
      "name": "toggleTeamMinted",
      "outputs": [],
      "stateMutability": "nonpayable",
      "type": "function"
    },
    {
      "inputs": [
        {
          "internalType": "bool",
          "name": "_state",
          "type": "bool"
        }
      ],
      "name": "toggleWhiteListSale",
      "outputs": [],
      "stateMutability": "nonpayable",
      "type": "function"
    },
    {
      "inputs": [
        {
          "internalType": "bool",
          "name": "_state",
          "type": "bool"
        }
      ],
      "name": "togglepublicSale",
      "outputs": [],
      "stateMutability": "nonpayable",
      "type": "function"
    },
    {
      "inputs": [
        {
          "internalType": "uint256",
          "name": "tokenId",
          "type": "uint256"
        }
      ],
      "name": "tokenURI",
      "outputs": [
        {
          "internalType": "string",
          "name": "",
          "type": "string"
        }
      ],
      "stateMutability": "view",
      "type": "function"
    },
    {
      "inputs": [],
      "name": "totalSupply",
      "outputs": [
        {
          "internalType": "uint256",
          "name": "",
          "type": "uint256"
        }
      ],
      "stateMutability": "view",
      "type": "function"
    },
    {
      "inputs": [
        {
          "internalType": "address",
          "name": "from",
          "type": "address"
        },
        {
          "internalType": "address",
          "name": "to",
          "type": "address"
        },
        {
          "internalType": "uint256",
          "name": "tokenId",
          "type": "uint256"
        }
      ],
      "name": "transferFrom",
      "outputs": [],
      "stateMutability": "payable",
      "type": "function"
    },
    {
      "inputs": [
        {
          "internalType": "address",
          "name": "newOwner",
          "type": "address"
        }
      ],
      "name": "transferOwnership",
      "outputs": [],
      "stateMutability": "nonpayable",
      "type": "function"
    },
    {
      "inputs": [],
      "name": "whiteListSale",
      "outputs": [
        {
          "internalType": "bool",
          "name": "",
          "type": "bool"
        }
      ],
      "stateMutability": "view",
      "type": "function"
    },
    {
      "inputs": [
        {
          "internalType": "uint256",
          "name": "tokens",
          "type": "uint256"
        },
        {
          "internalType": "bytes32[]",
          "name": "merkleProof",
          "type": "bytes32[]"
        }
      ],
      "name": "whitelistMint",
      "outputs": [],
      "stateMutability": "payable",
      "type": "function"
    },
    {
      "inputs": [],
      "name": "withdraw",
      "outputs": [],
      "stateMutability": "nonpayable",
      "type": "function"
    }
  ],
  "bytecode": "0x60c06040526005608081905264173539b7b760d91b60a09081526200002891600b91906200015a565b506064600d55600a600e819055600f55655af3107a40006010556714d1120d7b1600006011556012805463ffffffff1916630101010017905560006013553480156200007357600080fd5b50604080518082018252601581527f3132204b6e696768747320436f6c6c6563746976650000000000000000000000602080830191825283518085019094526003845262544b4360e81b908401528151919291620000d4916002916200015a565b508051620000ea9060039060208401906200015a565b5050600160005550620000fd3362000108565b60016009556200023c565b600880546001600160a01b038381166001600160a01b0319831681179093556040519116919082907f8be0079c531659141344cd1fd0a4f28419497f9722a3daafe3b4186f6b6457e090600090a35050565b828054620001689062000200565b90600052602060002090601f0160209004810192826200018c5760008555620001d7565b82601f10620001a757805160ff1916838001178555620001d7565b82800160010185558215620001d7579182015b82811115620001d7578251825591602001919060010190620001ba565b50620001e5929150620001e9565b5090565b5b80821115620001e55760008155600101620001ea565b600181811c908216806200021557607f821691505b6020821081036200023657634e487b7160e01b600052602260045260246000fd5b50919050565b612568806200024c6000396000f3fe6080604052600436106102e45760003560e01c80637cb6475911610190578063c6682862116100dc578063e8b5498d11610095578063f2c4ce1e1161006f578063f2c4ce1e14610845578063f2fde38b14610865578063f3257cdd14610885578063f3cedb8a146108a557600080fd5b8063e8b5498d146107ba578063e985e9c5146107dc578063ed5d43291461082557600080fd5b8063c66828621461071c578063c87b56dd14610731578063d2cab05614610751578063d5abeb0114610764578063da3ef23f1461077a578063dc33e6811461079a57600080fd5b8063a22cb46511610149578063b88d4fde11610123578063b88d4fde146106c8578063ba7a86b8146106db578063bc912e1a146106f0578063c08dfd3c1461070657600080fd5b8063a22cb46514610675578063b3ab66b014610695578063b724753a146106a857600080fd5b80637cb64759146105c257806383a076be146105e257806386a173ee146106025780638da5cb5b14610622578063940cd05b1461064057806395d89b411461066057600080fd5b806333bc1c5c1161024f57806362264f701161020857806365f13097116101e257806365f13097146105625780636c0360eb1461057857806370a082311461058d578063715018a6146105ad57600080fd5b806362264f70146105025780636352211e14610522578063659d968f1461054257600080fd5b806333bc1c5c1461046d5780633ccfd60b1461048e57806342842e0e1461049657806351830227146104a957806355f804b3146104c85780635c975abb146104e857600080fd5b8063095ea7b3116102a1578063095ea7b3146103d35780631201357d146103e6578063149835a01461040657806318160ddd1461042657806323b872dd146104445780632eb4a7ab1461045757600080fd5b806301ffc9a7146102e957806302329a291461031e57806306fdde031461034057806307e89ec014610362578063081812fc14610386578063081c8c44146103be575b600080fd5b3480156102f557600080fd5b50610309610304366004611f6f565b6108c5565b60405190151581526020015b60405180910390f35b34801561032a57600080fd5b5061033e610339366004611fa1565b610917565b005b34801561034c57600080fd5b50610355610932565b6040516103159190612014565b34801561036e57600080fd5b5061037860105481565b604051908152602001610315565b34801561039257600080fd5b506103a66103a1366004612027565b6109c4565b6040516001600160a01b039091168152602001610315565b3480156103ca57600080fd5b50610355610a08565b61033e6103e1366004612057565b610a96565b3480156103f257600080fd5b5061033e610401366004612027565b610b36565b34801561041257600080fd5b5061033e610421366004612027565b610b43565b34801561043257600080fd5b50610378600154600054036000190190565b61033e610452366004612081565b610b50565b34801561046357600080fd5b5061037860135481565b34801561047957600080fd5b50601254610309906301000000900460ff1681565b61033e610ce8565b61033e6104a4366004612081565b610d5a565b3480156104b557600080fd5b5060125461030990610100900460ff1681565b3480156104d457600080fd5b5061033e6104e3366004612149565b610d7a565b3480156104f457600080fd5b506012546103099060ff1681565b34801561050e57600080fd5b5061033e61051d366004611fa1565b610d99565b34801561052e57600080fd5b506103a661053d366004612027565b610dbd565b34801561054e57600080fd5b5061033e61055d366004612027565b610dc8565b34801561056e57600080fd5b50610378600e5481565b34801561058457600080fd5b50610355610dd5565b34801561059957600080fd5b506103786105a8366004612192565b610de2565b3480156105b957600080fd5b5061033e610e31565b3480156105ce57600080fd5b5061033e6105dd366004612027565b610e43565b3480156105ee57600080fd5b5061033e6105fd3660046121ad565b610e50565b34801561060e57600080fd5b506012546103099062010000900460ff1681565b34801561062e57600080fd5b506008546001600160a01b03166103a6565b34801561064c57600080fd5b5061033e61065b366004611fa1565b610f08565b34801561066c57600080fd5b50610355610f2a565b34801561068157600080fd5b5061033e6106903660046121d9565b610f39565b61033e6106a3366004612027565b610fa5565b3480156106b457600080fd5b5061033e6106c3366004612027565b6111f6565b61033e6106d6366004612203565b611203565b3480156106e757600080fd5b5061033e61124d565b3480156106fc57600080fd5b5061037860115481565b34801561071257600080fd5b50610378600f5481565b34801561072857600080fd5b506103556112da565b34801561073d57600080fd5b5061035561074c366004612027565b6112e7565b61033e61075f36600461227f565b61145c565b34801561077057600080fd5b50610378600d5481565b34801561078657600080fd5b5061033e610795366004612149565b611762565b3480156107a657600080fd5b506103786107b5366004612192565b61177d565b3480156107c657600080fd5b5060125461030990640100000000900460ff1681565b3480156107e857600080fd5b506103096107f73660046122fe565b6001600160a01b03918216600090815260076020908152604080832093909416825291909152205460ff1690565b34801561083157600080fd5b5061033e610840366004611fa1565b611788565b34801561085157600080fd5b5061033e610860366004612149565b6117b0565b34801561087157600080fd5b5061033e610880366004612192565b6117cb565b34801561089157600080fd5b5061033e6108a0366004611fa1565b611841565b3480156108b157600080fd5b5061033e6108c0366004612027565b611867565b60006301ffc9a760e01b6001600160e01b0319831614806108f657506380ac58cd60e01b6001600160e01b03198316145b806109115750635b5e139f60e01b6001600160e01b03198316145b92915050565b61091f611874565b6012805460ff1916911515919091179055565b60606002805461094190612328565b80601f016020809104026020016040519081016040528092919081815260200182805461096d90612328565b80156109ba5780601f1061098f576101008083540402835291602001916109ba565b820191906000526020600020905b81548152906001019060200180831161099d57829003601f168201915b5050505050905090565b60006109cf826118ce565b6109ec576040516333d1c03960e21b815260040160405180910390fd5b506000908152600660205260409020546001600160a01b031690565b600c8054610a1590612328565b80601f0160208091040260200160405190810160405280929190818152602001828054610a4190612328565b8015610a8e5780601f10610a6357610100808354040283529160200191610a8e565b820191906000526020600020905b815481529060010190602001808311610a7157829003601f168201915b505050505081565b6000610aa182610dbd565b9050336001600160a01b03821614610ada57610abd81336107f7565b610ada576040516367d9dca160e11b815260040160405180910390fd5b60008281526006602052604080822080546001600160a01b0319166001600160a01b0387811691821790925591518593918516917f8c5be1e5ebec7d5bd14f71427d1e84f3dd0314c0f7b2291e5b200ac8c7c3b92591a4505050565b610b3e611874565b601155565b610b4b611874565b600d55565b6000610b5b82611903565b9050836001600160a01b0316816001600160a01b031614610b8e5760405162a1148160e81b815260040160405180910390fd5b60008281526006602052604090208054338082146001600160a01b03881690911417610bdb57610bbe86336107f7565b610bdb57604051632ce44b5f60e11b815260040160405180910390fd5b6001600160a01b038516610c0257604051633a954ecd60e21b815260040160405180910390fd5b8015610c0d57600082555b6001600160a01b038681166000908152600560205260408082208054600019019055918716808252919020805460010190554260a01b17600160e11b17600085815260046020526040812091909155600160e11b84169003610c9f57600184016000818152600460205260408120549003610c9d576000548114610c9d5760008181526004602052604090208490555b505b83856001600160a01b0316876001600160a01b03167fddf252ad1be2c89b69c2b068fc378daa952ba7f163c4a11628f55a4df523b3ef60405160405180910390a4505050505050565b610cf0611874565b610cf8611972565b604051600090339047908381818185875af1925050503d8060008114610d3a576040519150601f19603f3d011682016040523d82523d6000602084013e610d3f565b606091505b5050905080610d4d57600080fd5b50610d586001600955565b565b610d7583838360405180602001604052806000815250611203565b505050565b610d82611874565b8051610d9590600a906020840190611ec0565b5050565b610da1611874565b60128054911515620100000262ff000019909216919091179055565b600061091182611903565b610dd0611874565b600e55565b600a8054610a1590612328565b60006001600160a01b038216610e0b576040516323d3ad8160e21b815260040160405180910390fd5b506001600160a01b031660009081526005602052604090205467ffffffffffffffff1690565b610e39611874565b610d5860006119cb565b610e4b611874565b601355565b610e58611874565b610e60611972565b60008211610e895760405162461bcd60e51b8152600401610e8090612362565b60405180910390fd5b6000610e9c600154600054036000190190565b600d54909150610eac84836123af565b1115610ef35760405162461bcd60e51b81526020600482015260166024820152751b585e08139195081b1a5b5a5d08195e18d95959195960521b6044820152606401610e80565b610efd8284611a1d565b50610d956001600955565b610f10611874565b601280549115156101000261ff0019909216919091179055565b60606003805461094190612328565b3360008181526007602090815260408083206001600160a01b03871680855290835292819020805460ff191686151590811790915590519081529192917f17307eab39ab6107e8899845ad3d59bd9653f200f220920489ca2b5937696c31910160405180910390a35050565b610fad611972565b60125460ff1615610ffa5760405162461bcd60e51b81526020600482015260176024820152761bdbdc1cc818dbdb9d1c9858dd081a5cc81c185d5cd959604a1b6044820152606401610e80565b6012546301000000900460ff166110535760405162461bcd60e51b815260206004820152601760248201527f53616c65204861736e27742073746172746564207965740000000000000000006044820152606401610e80565b6000611066600154600054036000190190565b9050600082116110885760405162461bcd60e51b8152600401610e8090612362565b600e548211156110da5760405162461bcd60e51b815260206004820152601f60248201527f6d6178206d696e7420616d6f756e7420706572207478206578636565646564006044820152606401610e80565b600d546110e783836123af565b11156111225760405162461bcd60e51b815260206004820152600a60248201526915d94814dbdb191bdd5d60b21b6044820152606401610e80565b600e548261113433611a37565b611a37565b61113e91906123af565b111561118c5760405162461bcd60e51b815260206004820152601c60248201527f204d6178204e4654205065722057616c6c6574206578636565646564000000006044820152606401610e80565b8160105461119a91906123c7565b3410156111de5760405162461bcd60e51b8152602060048201526012602482015271696e73756666696369656e742066756e647360701b6044820152606401610e80565b6111e83383611a1d565b506111f36001600955565b50565b6111fe611874565b600f55565b61120e848484610b50565b6001600160a01b0383163b156112475761122a84848484611a60565b611247576040516368d2bf6b60e11b815260040160405180910390fd5b50505050565b611255611874565b601254640100000000900460ff16156112ba5760405162461bcd60e51b815260206004820152602160248201527f3132204b6e6967687473203a3a205465616d20616c7265616479206d696e74656044820152601960fa1b6064820152608401610e80565b6012805464ff000000001916640100000000179055610d58336014611a1d565b600b8054610a1590612328565b60606112f2826118ce565b6113575760405162461bcd60e51b815260206004820152603060248201527f455243373231414d657461646174613a2055524920717565727920666f72206e60448201526f37b732bc34b9ba32b73a103a37b5b2b760811b6064820152608401610e80565b601254610100900460ff1615156000036113fd57600c805461137890612328565b80601f01602080910402602001604051908101604052809291908181526020018280546113a490612328565b80156113f15780601f106113c6576101008083540402835291602001916113f1565b820191906000526020600020905b8154815290600101906020018083116113d457829003601f168201915b50505050509050919050565b6000611407611b4c565b905060008151116114275760405180602001604052806000815250611455565b8061143184611b5b565b600b604051602001611445939291906123e6565b6040516020818303038152906040525b9392505050565b611464611972565b60125460ff16156114b15760405162461bcd60e51b81526020600482015260176024820152761bdbdc1cc818dbdb9d1c9858dd081a5cc81c185d5cd959604a1b6044820152606401610e80565b60125462010000900460ff166115095760405162461bcd60e51b815260206004820152601a60248201527f776c206d696e74204861736e27742073746172746564207965740000000000006044820152606401610e80565b61157e828280806020026020016040519081016040528093929190818152602001838360200280828437600092019190915250506013546040516bffffffffffffffffffffffff193360601b166020820152909250603401905060405160208183030381529060405280519060200120611bee565b6115ca5760405162461bcd60e51b815260206004820152601d60248201527f20596f7520617265206e6f7420696e207468652077686974656c6973740000006044820152606401610e80565b60006115dd600154600054036000190190565b9050600f54846115ed61112f3390565b6115f791906123af565b11156116455760405162461bcd60e51b815260206004820152601b60248201527f4d6178204e4654205065722057616c6c657420657863656564656400000000006044820152606401610e80565b600084116116655760405162461bcd60e51b8152600401610e8090612362565b600d5461167285836123af565b11156116ad5760405162461bcd60e51b815260206004820152600a60248201526915d94814dbdb191bdd5d60b21b6044820152606401610e80565b600f548411156116ff5760405162461bcd60e51b815260206004820152601860248201527f6d6178206d696e742070657220547820657863656564656400000000000000006044820152606401610e80565b8360115461170d91906123c7565b34101561174d5760405162461bcd60e51b815260206004820152600e60248201526d0dcdee840cadcdeeaced040cae8d60931b6044820152606401610e80565b6117573385611a1d565b50610d756001600955565b61176a611874565b8051610d9590600b906020840190611ec0565b600061091182611a37565b611790611874565b601280549115156401000000000264ff0000000019909216919091179055565b6117b8611874565b8051610d9590600c906020840190611ec0565b6117d3611874565b6001600160a01b0381166118385760405162461bcd60e51b815260206004820152602660248201527f4f776e61626c653a206e6577206f776e657220697320746865207a65726f206160448201526564647265737360d01b6064820152608401610e80565b6111f3816119cb565b611849611874565b6012805491151563010000000263ff00000019909216919091179055565b61186f611874565b601055565b6008546001600160a01b03163314610d585760405162461bcd60e51b815260206004820181905260248201527f4f776e61626c653a2063616c6c6572206973206e6f7420746865206f776e65726044820152606401610e80565b6000816001111580156118e2575060005482105b8015610911575050600090815260046020526040902054600160e01b161590565b60008180600111611959576000548110156119595760008181526004602052604081205490600160e01b82169003611957575b80600003611455575060001901600081815260046020526040902054611936565b505b604051636f96cda160e11b815260040160405180910390fd5b6002600954036119c45760405162461bcd60e51b815260206004820152601f60248201527f5265656e7472616e637947756172643a207265656e7472616e742063616c6c006044820152606401610e80565b6002600955565b600880546001600160a01b038381166001600160a01b0319831681179093556040519116919082907f8be0079c531659141344cd1fd0a4f28419497f9722a3daafe3b4186f6b6457e090600090a35050565b610d95828260405180602001604052806000815250611c04565b6001600160a01b03166000908152600560205260409081902054901c67ffffffffffffffff1690565b604051630a85bd0160e11b81526000906001600160a01b0385169063150b7a0290611a959033908990889088906004016124a9565b6020604051808303816000875af1925050508015611ad0575060408051601f3d908101601f19168201909252611acd918101906124e6565b60015b611b2e573d808015611afe576040519150601f19603f3d011682016040523d82523d6000602084013e611b03565b606091505b508051600003611b26576040516368d2bf6b60e11b815260040160405180910390fd5b805181602001fd5b6001600160e01b031916630a85bd0160e11b1490505b949350505050565b6060600a805461094190612328565b60606000611b6883611c71565b600101905060008167ffffffffffffffff811115611b8857611b886120bd565b6040519080825280601f01601f191660200182016040528015611bb2576020820181803683370190505b5090508181016020015b600019016f181899199a1a9b1b9c1cb0b131b232b360811b600a86061a8153600a8504945084611bbc57509392505050565b600082611bfb8584611d49565b14949350505050565b611c0e8383611d96565b6001600160a01b0383163b15610d75576000548281035b611c386000868380600101945086611a60565b611c55576040516368d2bf6b60e11b815260040160405180910390fd5b818110611c25578160005414611c6a57600080fd5b5050505050565b60008072184f03e93ff9f4daa797ed6e38ed64bf6a1f0160401b8310611cb05772184f03e93ff9f4daa797ed6e38ed64bf6a1f0160401b830492506040015b6d04ee2d6d415b85acef81000000008310611cdc576d04ee2d6d415b85acef8100000000830492506020015b662386f26fc100008310611cfa57662386f26fc10000830492506010015b6305f5e1008310611d12576305f5e100830492506008015b6127108310611d2657612710830492506004015b60648310611d38576064830492506002015b600a83106109115760010192915050565b600081815b8451811015611d8e57611d7a82868381518110611d6d57611d6d612503565b6020026020010151611e94565b915080611d8681612519565b915050611d4e565b509392505050565b6000805490829003611dbb5760405163b562e8dd60e01b815260040160405180910390fd5b6001600160a01b03831660008181526005602090815260408083208054680100000000000000018802019055848352600490915281206001851460e11b4260a01b178317905582840190839083907fddf252ad1be2c89b69c2b068fc378daa952ba7f163c4a11628f55a4df523b3ef8180a4600183015b818114611e6a57808360007fddf252ad1be2c89b69c2b068fc378daa952ba7f163c4a11628f55a4df523b3ef600080a4600101611e32565b5081600003611e8b57604051622e076360e81b815260040160405180910390fd5b60005550505050565b6000818310611eb0576000828152602084905260409020611455565b5060009182526020526040902090565b828054611ecc90612328565b90600052602060002090601f016020900481019282611eee5760008555611f34565b82601f10611f0757805160ff1916838001178555611f34565b82800160010185558215611f34579182015b82811115611f34578251825591602001919060010190611f19565b50611f40929150611f44565b5090565b5b80821115611f405760008155600101611f45565b6001600160e01b0319811681146111f357600080fd5b600060208284031215611f8157600080fd5b813561145581611f59565b80358015158114611f9c57600080fd5b919050565b600060208284031215611fb357600080fd5b61145582611f8c565b60005b83811015611fd7578181015183820152602001611fbf565b838111156112475750506000910152565b60008151808452612000816020860160208601611fbc565b601f01601f19169290920160200192915050565b6020815260006114556020830184611fe8565b60006020828403121561203957600080fd5b5035919050565b80356001600160a01b0381168114611f9c57600080fd5b6000806040838503121561206a57600080fd5b61207383612040565b946020939093013593505050565b60008060006060848603121561209657600080fd5b61209f84612040565b92506120ad60208501612040565b9150604084013590509250925092565b634e487b7160e01b600052604160045260246000fd5b600067ffffffffffffffff808411156120ee576120ee6120bd565b604051601f8501601f19908116603f01168101908282118183101715612116576121166120bd565b8160405280935085815286868601111561212f57600080fd5b858560208301376000602087830101525050509392505050565b60006020828403121561215b57600080fd5b813567ffffffffffffffff81111561217257600080fd5b8201601f8101841361218357600080fd5b611b44848235602084016120d3565b6000602082840312156121a457600080fd5b61145582612040565b600080604083850312156121c057600080fd5b823591506121d060208401612040565b90509250929050565b600080604083850312156121ec57600080fd5b6121f583612040565b91506121d060208401611f8c565b6000806000806080858703121561221957600080fd5b61222285612040565b935061223060208601612040565b925060408501359150606085013567ffffffffffffffff81111561225357600080fd5b8501601f8101871361226457600080fd5b612273878235602084016120d3565b91505092959194509250565b60008060006040848603121561229457600080fd5b83359250602084013567ffffffffffffffff808211156122b357600080fd5b818601915086601f8301126122c757600080fd5b8135818111156122d657600080fd5b8760208260051b85010111156122eb57600080fd5b6020830194508093505050509250925092565b6000806040838503121561231157600080fd5b61231a83612040565b91506121d060208401612040565b600181811c9082168061233c57607f821691505b60208210810361235c57634e487b7160e01b600052602260045260246000fd5b50919050565b6020808252601b908201527f6e65656420746f206d696e74206174206c656173742031204e46540000000000604082015260600190565b634e487b7160e01b600052601160045260246000fd5b600082198211156123c2576123c2612399565b500190565b60008160001904831182151516156123e1576123e1612399565b500290565b6000845160206123f98285838a01611fbc565b85519184019161240c8184848a01611fbc565b8554920191600090600181811c908083168061242957607f831692505b858310810361244657634e487b7160e01b85526022600452602485fd5b80801561245a576001811461246b57612498565b60ff19851688528388019550612498565b60008b81526020902060005b858110156124905781548a820152908401908801612477565b505083880195505b50939b9a5050505050505050505050565b6001600160a01b03858116825284166020820152604081018390526080606082018190526000906124dc90830184611fe8565b9695505050505050565b6000602082840312156124f857600080fd5b815161145581611f59565b634e487b7160e01b600052603260045260246000fd5b60006001820161252b5761252b612399565b506001019056fea26469706673582212201afc316add87aa3f4fa42340cc4a4265420ce1e39bd70b06846278759908e56764736f6c634300080d0033",
  "linkReferences": {},
  "deployedLinkReferences": {}
}