{
  "_format": "hh-sol-artifact-1",
  "contractName": "NetliOF",
  "sourceName": "contracts/NetliOF.sol",
  "abi": [
    {
      "anonymous": false,
      "inputs": [
        {
          "indexed": true,
          "internalType": "address",
          "name": "previousOwner",
          "type": "address"
        },
        {
          "indexed": true,
          "internalType": "address",
          "name": "newOwner",
          "type": "address"
        }
      ],
      "name": "OwnershipTransferred",
      "type": "event"
    },
    {
      "inputs": [],
      "name": "MAX_FEE",
      "outputs": [
        {
          "internalType": "uint256",
          "name": "",
          "type": "uint256"
        }
      ],
      "stateMutability": "view",
      "type": "function"
    },
    {
      "inputs": [
        {
          "internalType": "address",
          "name": "",
          "type": "address"
        }
      ],
      "name": "_howManyPerCreator",
      "outputs": [
        {
          "internalType": "uint256",
          "name": "",
          "type": "uint256"
        }
      ],
      "stateMutability": "view",
      "type": "function"
    },
    {
      "inputs": [
        {
          "internalType": "address",
          "name": "",
          "type": "address"
        }
      ],
      "name": "_isCreator",
      "outputs": [
        {
          "internalType": "bool",
          "name": "",
          "type": "bool"
        }
      ],
      "stateMutability": "view",
      "type": "function"
    },
    {
      "inputs": [
        {
          "internalType": "string",
          "name": "_name",
          "type": "string"
        },
        {
          "internalType": "string",
          "name": "_desc",
          "type": "string"
        }
      ],
      "name": "addCategory",
      "outputs": [],
      "stateMutability": "nonpayable",
      "type": "function"
    },
    {
      "inputs": [
        {
          "internalType": "uint256",
          "name": "_price",
          "type": "uint256"
        },
        {
          "internalType": "string",
          "name": "_desc",
          "type": "string"
        },
        {
          "internalType": "string",
          "name": "_url1",
          "type": "string"
        },
        {
          "internalType": "string",
          "name": "_url2",
          "type": "string"
        },
        {
          "internalType": "uint256",
          "name": "_cat",
          "type": "uint256"
        }
      ],
      "name": "addContent",
      "outputs": [],
      "stateMutability": "nonpayable",
      "type": "function"
    },
    {
      "inputs": [
        {
          "internalType": "address",
          "name": "_creator",
          "type": "address"
        },
        {
          "internalType": "string",
          "name": "_name",
          "type": "string"
        },
        {
          "internalType": "string",
          "name": "_desc",
          "type": "string"
        },
        {
          "internalType": "string",
          "name": "_url1",
          "type": "string"
        },
        {
          "internalType": "string",
          "name": "_url2",
          "type": "string"
        },
        {
          "internalType": "string",
          "name": "_social1",
          "type": "string"
        },
        {
          "internalType": "string",
          "name": "_social2",
          "type": "string"
        },
        {
          "internalType": "string",
          "name": "_social3",
          "type": "string"
        },
        {
          "internalType": "string",
          "name": "_social4",
          "type": "string"
        }
      ],
      "name": "addCreator",
      "outputs": [],
      "stateMutability": "nonpayable",
      "type": "function"
    },
    {
      "inputs": [],
      "name": "balanceTwoAddress",
      "outputs": [
        {
          "internalType": "address payable",
          "name": "",
          "type": "address"
        }
      ],
      "stateMutability": "view",
      "type": "function"
    },
    {
      "inputs": [
        {
          "internalType": "address",
          "name": "_creator",
          "type": "address"
        }
      ],
      "name": "enableCreator",
      "outputs": [],
      "stateMutability": "nonpayable",
      "type": "function"
    },
    {
      "inputs": [],
      "name": "feePercentage",
      "outputs": [
        {
          "internalType": "uint256",
          "name": "",
          "type": "uint256"
        }
      ],
      "stateMutability": "view",
      "type": "function"
    },
    {
      "inputs": [],
      "name": "owner",
      "outputs": [
        {
          "internalType": "address",
          "name": "",
          "type": "address"
        }
      ],
      "stateMutability": "view",
      "type": "function"
    },
    {
      "inputs": [
        {
          "internalType": "uint256",
          "name": "_contID",
          "type": "uint256"
        }
      ],
      "name": "purchase",
      "outputs": [
        {
          "internalType": "string",
          "name": "",
          "type": "string"
        }
      ],
      "stateMutability": "payable",
      "type": "function"
    },
    {
      "inputs": [
        {
          "internalType": "address",
          "name": "_creator",
          "type": "address"
        }
      ],
      "name": "removeCreator",
      "outputs": [],
      "stateMutability": "nonpayable",
      "type": "function"
    },
    {
      "inputs": [],
      "name": "renounceOwnership",
      "outputs": [],
      "stateMutability": "nonpayable",
      "type": "function"
    },
    {
      "inputs": [],
      "name": "retrieveCategories",
      "outputs": [
        {
          "components": [
            {
              "internalType": "uint256",
              "name": "id",
              "type": "uint256"
            },
            {
              "internalType": "string",
              "name": "name",
              "type": "string"
            },
            {
              "internalType": "string",
              "name": "descr",
              "type": "string"
            }
          ],
          "internalType": "struct NetliOF.Category[]",
          "name": "",
          "type": "tuple[]"
        }
      ],
      "stateMutability": "view",
      "type": "function"
    },
    {
      "inputs": [
        {
          "internalType": "uint256",
          "name": "_contID",
          "type": "uint256"
        }
      ],
      "name": "retrieveContentByID",
      "outputs": [
        {
          "components": [
            {
              "internalType": "address",
              "name": "creator",
              "type": "address"
            },
            {
              "internalType": "uint256",
              "name": "price",
              "type": "uint256"
            },
            {
              "internalType": "uint256",
              "name": "date",
              "type": "uint256"
            },
            {
              "internalType": "string",
              "name": "desc",
              "type": "string"
            },
            {
              "internalType": "string",
              "name": "freeipfsurl",
              "type": "string"
            },
            {
              "internalType": "string",
              "name": "paidipfsurl",
              "type": "string"
            },
            {
              "internalType": "uint256",
              "name": "category",
              "type": "uint256"
            },
            {
              "internalType": "uint256",
              "name": "contID",
              "type": "uint256"
            }
          ],
          "internalType": "struct NetliOF.Content[]",
          "name": "",
          "type": "tuple[]"
        }
      ],
      "stateMutability": "view",
      "type": "function"
    },
    {
      "inputs": [],
      "name": "retrieveContents",
      "outputs": [
        {
          "components": [
            {
              "internalType": "address",
              "name": "creator",
              "type": "address"
            },
            {
              "internalType": "uint256",
              "name": "price",
              "type": "uint256"
            },
            {
              "internalType": "uint256",
              "name": "date",
              "type": "uint256"
            },
            {
              "internalType": "string",
              "name": "desc",
              "type": "string"
            },
            {
              "internalType": "string",
              "name": "freeipfsurl",
              "type": "string"
            },
            {
              "internalType": "string",
              "name": "paidipfsurl",
              "type": "string"
            },
            {
              "internalType": "uint256",
              "name": "category",
              "type": "uint256"
            },
            {
              "internalType": "uint256",
              "name": "contID",
              "type": "uint256"
            }
          ],
          "internalType": "struct NetliOF.Content[]",
          "name": "",
          "type": "tuple[]"
        }
      ],
      "stateMutability": "view",
      "type": "function"
    },
    {
      "inputs": [
        {
          "internalType": "address",
          "name": "_creator",
          "type": "address"
        }
      ],
      "name": "retrieveCreatorByAddress",
      "outputs": [
        {
          "components": [
            {
              "internalType": "address",
              "name": "creatorAddr",
              "type": "address"
            },
            {
              "internalType": "string",
              "name": "name",
              "type": "string"
            },
            {
              "internalType": "string",
              "name": "desc",
              "type": "string"
            },
            {
              "internalType": "string",
              "name": "profilePicUrl",
              "type": "string"
            },
            {
              "internalType": "string",
              "name": "coverPicUrl",
              "type": "string"
            },
            {
              "internalType": "string",
              "name": "insta",
              "type": "string"
            },
            {
              "internalType": "string",
              "name": "telegram",
              "type": "string"
            },
            {
              "internalType": "string",
              "name": "twitter",
              "type": "string"
            },
            {
              "internalType": "string",
              "name": "youtube",
              "type": "string"
            }
          ],
          "internalType": "struct NetliOF.Creator",
          "name": "",
          "type": "tuple"
        }
      ],
      "stateMutability": "view",
      "type": "function"
    },
    {
      "inputs": [],
      "name": "retrieveCreators",
      "outputs": [
        {
          "components": [
            {
              "internalType": "address",
              "name": "creatorAddr",
              "type": "address"
            },
            {
              "internalType": "string",
              "name": "name",
              "type": "string"
            },
            {
              "internalType": "string",
              "name": "desc",
              "type": "string"
            },
            {
              "internalType": "string",
              "name": "profilePicUrl",
              "type": "string"
            },
            {
              "internalType": "string",
              "name": "coverPicUrl",
              "type": "string"
            },
            {
              "internalType": "string",
              "name": "insta",
              "type": "string"
            },
            {
              "internalType": "string",
              "name": "telegram",
              "type": "string"
            },
            {
              "internalType": "string",
              "name": "twitter",
              "type": "string"
            },
            {
              "internalType": "string",
              "name": "youtube",
              "type": "string"
            }
          ],
          "internalType": "struct NetliOF.Creator[]",
          "name": "",
          "type": "tuple[]"
        }
      ],
      "stateMutability": "view",
      "type": "function"
    },
    {
      "inputs": [
        {
          "internalType": "address",
          "name": "_buyer",
          "type": "address"
        }
      ],
      "name": "retrievePurchaseByAddress",
      "outputs": [
        {
          "components": [
            {
              "internalType": "uint256",
              "name": "contID",
              "type": "uint256"
            },
            {
              "internalType": "address",
              "name": "buyer",
              "type": "address"
            },
            {
              "internalType": "uint256",
              "name": "date",
              "type": "uint256"
            }
          ],
          "internalType": "struct NetliOF.Purchased[]",
          "name": "",
          "type": "tuple[]"
        }
      ],
      "stateMutability": "view",
      "type": "function"
    },
    {
      "inputs": [],
      "name": "retrievePurchased",
      "outputs": [
        {
          "components": [
            {
              "internalType": "uint256",
              "name": "contID",
              "type": "uint256"
            },
            {
              "internalType": "address",
              "name": "buyer",
              "type": "address"
            },
            {
              "internalType": "uint256",
              "name": "date",
              "type": "uint256"
            }
          ],
          "internalType": "struct NetliOF.Purchased[]",
          "name": "",
          "type": "tuple[]"
        }
      ],
      "stateMutability": "view",
      "type": "function"
    },
    {
      "inputs": [
        {
          "internalType": "address payable",
          "name": "_newBalanceTwoAddress",
          "type": "address"
        }
      ],
      "name": "setBalanceTwoAddress",
      "outputs": [],
      "stateMutability": "nonpayable",
      "type": "function"
    },
    {
      "inputs": [
        {
          "internalType": "uint256",
          "name": "_newFeePercentage",
          "type": "uint256"
        }
      ],
      "name": "setFeePercentage",
      "outputs": [],
      "stateMutability": "nonpayable",
      "type": "function"
    },
    {
      "inputs": [
        {
          "internalType": "address",
          "name": "newOwner",
          "type": "address"
        }
      ],
      "name": "transferOwnership",
      "outputs": [],
      "stateMutability": "nonpayable",
      "type": "function"
    }
  ],
  "bytecode": "0x6080604052600c600d55600c600e557377d4321478234c729bda5011722c85465bed0917600f60006101000a81548173ffffffffffffffffffffffffffffffffffffffff021916908373ffffffffffffffffffffffffffffffffffffffff160217905550600060105560006011553480156200007a57600080fd5b506200009b6200008f620000a160201b60201c565b620000a960201b60201c565b6200016d565b600033905090565b60008060009054906101000a900473ffffffffffffffffffffffffffffffffffffffff169050816000806101000a81548173ffffffffffffffffffffffffffffffffffffffff021916908373ffffffffffffffffffffffffffffffffffffffff1602179055508173ffffffffffffffffffffffffffffffffffffffff168173ffffffffffffffffffffffffffffffffffffffff167f8be0079c531659141344cd1fd0a4f28419497f9722a3daafe3b4186f6b6457e060405160405180910390a35050565b614130806200017d6000396000f3fe6080604052600436106101405760003560e01c80638b7e381b116100b6578063bc063e1a1161006f578063bc063e1a14610448578063bd6018bb14610473578063ea9a4cb11461049c578063efef39a1146104d9578063f25f870d14610509578063f2fde38b1461053457610140565b80638b7e381b146103265780638da5cb5b1461034f5780639058b2331461037a5780639cdf15ea146103b7578063a001ecdd146103f4578063ae06c1b71461041f57610140565b80635d9ca5bc116101085780635d9ca5bc1461022c5780636b6c9046146102555780636e8eb4b31461027e578063715018a6146102a75780637a3fe5e8146102be57806387f926de146102e957610140565b80631bf703b2146101455780631c0f1a131461016e5780632b16339c146101ab5780632d619dbb146101d65780633f253a9c14610201575b600080fd5b34801561015157600080fd5b5061016c60048036038101906101679190612fac565b61055d565b005b34801561017a57600080fd5b5061019560048036038101906101909190612dd4565b6106b0565b6040516101a2919061392e565b60405180910390f35b3480156101b757600080fd5b506101c06106d0565b6040516101cd91906138c8565b60405180910390f35b3480156101e257600080fd5b506101eb610964565b6040516101f891906138ea565b60405180910390f35b34801561020d57600080fd5b50610216610eaa565b604051610223919061390c565b60405180910390f35b34801561023857600080fd5b50610253600480360381019061024e9190612dd4565b610f73565b005b34801561026157600080fd5b5061027c60048036038101906102779190613041565b610fd6565b005b34801561028a57600080fd5b506102a560048036038101906102a09190612e26565b6114fe565b005b3480156102b357600080fd5b506102bc611917565b005b3480156102ca57600080fd5b506102d361192b565b6040516102e0919061388b565b60405180910390f35b3480156102f557600080fd5b50610310600480360381019061030b9190612dd4565b611951565b60405161031d9190613a8d565b60405180910390f35b34801561033257600080fd5b5061034d60048036038101906103489190612dfd565b611969565b005b34801561035b57600080fd5b506103646119b5565b6040516103719190613870565b60405180910390f35b34801561038657600080fd5b506103a1600480360381019061039c9190612dd4565b6119de565b6040516103ae9190613a6b565b60405180910390f35b3480156103c357600080fd5b506103de60048036038101906103d99190613018565b611f1e565b6040516103eb91906138c8565b60405180910390f35b34801561040057600080fd5b506104096121c5565b6040516104169190613a8d565b60405180910390f35b34801561042b57600080fd5b5061044660048036038101906104419190613018565b6121cb565b005b34801561045457600080fd5b5061045d612222565b60405161046a9190613a8d565b60405180910390f35b34801561047f57600080fd5b5061049a60048036038101906104959190612dd4565b612228565b005b3480156104a857600080fd5b506104c360048036038101906104be9190612dd4565b61228b565b6040516104d0919061390c565b60405180910390f35b6104f360048036038101906104ee9190613018565b612393565b6040516105009190613949565b60405180910390f35b34801561051557600080fd5b5061051e61273a565b60405161052b91906138a6565b60405180910390f35b34801561054057600080fd5b5061055b60048036038101906105569190612dd4565b6128c7565b005b61056561294b565b6010600081548092919061057890613e2e565b9190505550600660006010548152602001908152602001600020604051806060016040528060105481526020018481526020018381525090806001815401808255809150506001900390600052602060002090600302016000909190919091506000820151816000015560208201518160010190805190602001906105fe929190612c28565b50604082015181600201908051906020019061061b929190612c28565b50505060026040518060600160405280601054815260200184815260200183815250908060018154018082558091505060019003906000526020600020906003020160009091909190915060008201518160000155602082015181600101908051906020019061068c929190612c28565b5060408201518160020190805190602001906106a9929190612c28565b5050505050565b600a6020528060005260406000206000915054906101000a900460ff1681565b60606001805480602002602001604051908101604052809291908181526020016000905b8282101561095b5783829060005260206000209060080201604051806101000160405290816000820160009054906101000a900473ffffffffffffffffffffffffffffffffffffffff1673ffffffffffffffffffffffffffffffffffffffff1673ffffffffffffffffffffffffffffffffffffffff168152602001600182015481526020016002820154815260200160038201805461079290613dcb565b80601f01602080910402602001604051908101604052809291908181526020018280546107be90613dcb565b801561080b5780601f106107e05761010080835404028352916020019161080b565b820191906000526020600020905b8154815290600101906020018083116107ee57829003601f168201915b5050505050815260200160048201805461082490613dcb565b80601f016020809104026020016040519081016040528092919081815260200182805461085090613dcb565b801561089d5780601f106108725761010080835404028352916020019161089d565b820191906000526020600020905b81548152906001019060200180831161088057829003601f168201915b505050505081526020016005820180546108b690613dcb565b80601f01602080910402602001604051908101604052809291908181526020018280546108e290613dcb565b801561092f5780601f106109045761010080835404028352916020019161092f565b820191906000526020600020905b81548152906001019060200180831161091257829003601f168201915b5050505050815260200160068201548152602001600782015481525050815260200190600101906106f4565b50505050905090565b60606004805480602002602001604051908101604052809291908181526020016000905b82821015610ea15783829060005260206000209060090201604051806101200160405290816000820160009054906101000a900473ffffffffffffffffffffffffffffffffffffffff1673ffffffffffffffffffffffffffffffffffffffff1673ffffffffffffffffffffffffffffffffffffffff168152602001600182018054610a1290613dcb565b80601f0160208091040260200160405190810160405280929190818152602001828054610a3e90613dcb565b8015610a8b5780601f10610a6057610100808354040283529160200191610a8b565b820191906000526020600020905b815481529060010190602001808311610a6e57829003601f168201915b50505050508152602001600282018054610aa490613dcb565b80601f0160208091040260200160405190810160405280929190818152602001828054610ad090613dcb565b8015610b1d5780601f10610af257610100808354040283529160200191610b1d565b820191906000526020600020905b815481529060010190602001808311610b0057829003601f168201915b50505050508152602001600382018054610b3690613dcb565b80601f0160208091040260200160405190810160405280929190818152602001828054610b6290613dcb565b8015610baf5780601f10610b8457610100808354040283529160200191610baf565b820191906000526020600020905b815481529060010190602001808311610b9257829003601f168201915b50505050508152602001600482018054610bc890613dcb565b80601f0160208091040260200160405190810160405280929190818152602001828054610bf490613dcb565b8015610c415780601f10610c1657610100808354040283529160200191610c41565b820191906000526020600020905b815481529060010190602001808311610c2457829003601f168201915b50505050508152602001600582018054610c5a90613dcb565b80601f0160208091040260200160405190810160405280929190818152602001828054610c8690613dcb565b8015610cd35780601f10610ca857610100808354040283529160200191610cd3565b820191906000526020600020905b815481529060010190602001808311610cb657829003601f168201915b50505050508152602001600682018054610cec90613dcb565b80601f0160208091040260200160405190810160405280929190818152602001828054610d1890613dcb565b8015610d655780601f10610d3a57610100808354040283529160200191610d65565b820191906000526020600020905b815481529060010190602001808311610d4857829003601f168201915b50505050508152602001600782018054610d7e90613dcb565b80601f0160208091040260200160405190810160405280929190818152602001828054610daa90613dcb565b8015610df75780601f10610dcc57610100808354040283529160200191610df7565b820191906000526020600020905b815481529060010190602001808311610dda57829003601f168201915b50505050508152602001600882018054610e1090613dcb565b80601f0160208091040260200160405190810160405280929190818152602001828054610e3c90613dcb565b8015610e895780601f10610e5e57610100808354040283529160200191610e89565b820191906000526020600020905b815481529060010190602001808311610e6c57829003601f168201915b50505050508152505081526020019060010190610988565b50505050905090565b60606003805480602002602001604051908101604052809291908181526020016000905b82821015610f6a5783829060005260206000209060030201604051806060016040529081600082015481526020016001820160009054906101000a900473ffffffffffffffffffffffffffffffffffffffff1673ffffffffffffffffffffffffffffffffffffffff1673ffffffffffffffffffffffffffffffffffffffff16815260200160028201548152505081526020019060010190610ece565b50505050905090565b610f7b61294b565b6001600a60008373ffffffffffffffffffffffffffffffffffffffff1673ffffffffffffffffffffffffffffffffffffffff16815260200190815260200160002060006101000a81548160ff02191690831515021790555050565b60011515600a60003373ffffffffffffffffffffffffffffffffffffffff1673ffffffffffffffffffffffffffffffffffffffff16815260200190815260200160002060009054906101000a900460ff16151514611069576040517f08c379a000000000000000000000000000000000000000000000000000000000815260040161106090613a0b565b60405180910390fd5b6005600060115481526020019081526020016000206040518061010001604052803373ffffffffffffffffffffffffffffffffffffffff168152602001878152602001428152602001868152602001858152602001848152602001838152602001601154815250908060018154018082558091505060019003906000526020600020906008020160009091909190915060008201518160000160006101000a81548173ffffffffffffffffffffffffffffffffffffffff021916908373ffffffffffffffffffffffffffffffffffffffff16021790555060208201518160010155604082015181600201556060820151816003019080519060200190611170929190612c28565b50608082015181600401908051906020019061118d929190612c28565b5060a08201518160050190805190602001906111aa929190612c28565b5060c0820151816006015560e08201518160070155505060016040518061010001604052803373ffffffffffffffffffffffffffffffffffffffff168152602001878152602001428152602001868152602001858152602001848152602001838152602001601154815250908060018154018082558091505060019003906000526020600020906008020160009091909190915060008201518160000160006101000a81548173ffffffffffffffffffffffffffffffffffffffff021916908373ffffffffffffffffffffffffffffffffffffffff160217905550602082015181600101556040820151816002015560608201518160030190805190602001906112b5929190612c28565b5060808201518160040190805190602001906112d2929190612c28565b5060a08201518160050190805190602001906112ef929190612c28565b5060c0820151816006015560e082015181600701555050600860003373ffffffffffffffffffffffffffffffffffffffff1673ffffffffffffffffffffffffffffffffffffffff1681526020019081526020016000206040518061010001604052803373ffffffffffffffffffffffffffffffffffffffff168152602001878152602001428152602001868152602001858152602001848152602001838152602001601154815250908060018154018082558091505060019003906000526020600020906008020160009091909190915060008201518160000160006101000a81548173ffffffffffffffffffffffffffffffffffffffff021916908373ffffffffffffffffffffffffffffffffffffffff16021790555060208201518160010155604082015181600201556060820151816003019080519060200190611437929190612c28565b506080820151816004019080519060200190611454929190612c28565b5060a0820151816005019080519060200190611471929190612c28565b5060c0820151816006015560e0820151816007015550506011600081548092919061149b90613e2e565b91905055506002600960003373ffffffffffffffffffffffffffffffffffffffff1673ffffffffffffffffffffffffffffffffffffffff16815260200190815260200160002060008282546114f09190613c1a565b925050819055505050505050565b60011515600a60003373ffffffffffffffffffffffffffffffffffffffff1673ffffffffffffffffffffffffffffffffffffffff16815260200190815260200160002060009054906101000a900460ff16151514611591576040517f08c379a0000000000000000000000000000000000000000000000000000000008152600401611588906139ab565b60405180910390fd5b6040518061012001604052808a73ffffffffffffffffffffffffffffffffffffffff16815260200189815260200188815260200187815260200186815260200185815260200184815260200183815260200182815250600b60003373ffffffffffffffffffffffffffffffffffffffff1673ffffffffffffffffffffffffffffffffffffffff16815260200190815260200160002060008201518160000160006101000a81548173ffffffffffffffffffffffffffffffffffffffff021916908373ffffffffffffffffffffffffffffffffffffffff1602179055506020820151816001019080519060200190611689929190612c28565b5060408201518160020190805190602001906116a6929190612c28565b5060608201518160030190805190602001906116c3929190612c28565b5060808201518160040190805190602001906116e0929190612c28565b5060a08201518160050190805190602001906116fd929190612c28565b5060c082015181600601908051906020019061171a929190612c28565b5060e0820151816007019080519060200190611737929190612c28565b50610100820151816008019080519060200190611755929190612c28565b5090505060046040518061012001604052808b73ffffffffffffffffffffffffffffffffffffffff1681526020018a815260200189815260200188815260200187815260200186815260200185815260200184815260200183815250908060018154018082558091505060019003906000526020600020906009020160009091909190915060008201518160000160006101000a81548173ffffffffffffffffffffffffffffffffffffffff021916908373ffffffffffffffffffffffffffffffffffffffff160217905550602082015181600101908051906020019061183d929190612c28565b50604082015181600201908051906020019061185a929190612c28565b506060820151816003019080519060200190611877929190612c28565b506080820151816004019080519060200190611894929190612c28565b5060a08201518160050190805190602001906118b1929190612c28565b5060c08201518160060190805190602001906118ce929190612c28565b5060e08201518160070190805190602001906118eb929190612c28565b50610100820151816008019080519060200190611909929190612c28565b505050505050505050505050565b61191f61294b565b61192960006129c9565b565b600f60009054906101000a900473ffffffffffffffffffffffffffffffffffffffff1681565b60096020528060005260406000206000915090505481565b61197161294b565b80600f60006101000a81548173ffffffffffffffffffffffffffffffffffffffff021916908373ffffffffffffffffffffffffffffffffffffffff16021790555050565b60008060009054906101000a900473ffffffffffffffffffffffffffffffffffffffff16905090565b6119e6612cae565b600b60008373ffffffffffffffffffffffffffffffffffffffff1673ffffffffffffffffffffffffffffffffffffffff168152602001908152602001600020604051806101200160405290816000820160009054906101000a900473ffffffffffffffffffffffffffffffffffffffff1673ffffffffffffffffffffffffffffffffffffffff1673ffffffffffffffffffffffffffffffffffffffff168152602001600182018054611a9790613dcb565b80601f0160208091040260200160405190810160405280929190818152602001828054611ac390613dcb565b8015611b105780601f10611ae557610100808354040283529160200191611b10565b820191906000526020600020905b815481529060010190602001808311611af357829003601f168201915b50505050508152602001600282018054611b2990613dcb565b80601f0160208091040260200160405190810160405280929190818152602001828054611b5590613dcb565b8015611ba25780601f10611b7757610100808354040283529160200191611ba2565b820191906000526020600020905b815481529060010190602001808311611b8557829003601f168201915b50505050508152602001600382018054611bbb90613dcb565b80601f0160208091040260200160405190810160405280929190818152602001828054611be790613dcb565b8015611c345780601f10611c0957610100808354040283529160200191611c34565b820191906000526020600020905b815481529060010190602001808311611c1757829003601f168201915b50505050508152602001600482018054611c4d90613dcb565b80601f0160208091040260200160405190810160405280929190818152602001828054611c7990613dcb565b8015611cc65780601f10611c9b57610100808354040283529160200191611cc6565b820191906000526020600020905b815481529060010190602001808311611ca957829003601f168201915b50505050508152602001600582018054611cdf90613dcb565b80601f0160208091040260200160405190810160405280929190818152602001828054611d0b90613dcb565b8015611d585780601f10611d2d57610100808354040283529160200191611d58565b820191906000526020600020905b815481529060010190602001808311611d3b57829003601f168201915b50505050508152602001600682018054611d7190613dcb565b80601f0160208091040260200160405190810160405280929190818152602001828054611d9d90613dcb565b8015611dea5780601f10611dbf57610100808354040283529160200191611dea565b820191906000526020600020905b815481529060010190602001808311611dcd57829003601f168201915b50505050508152602001600782018054611e0390613dcb565b80601f0160208091040260200160405190810160405280929190818152602001828054611e2f90613dcb565b8015611e7c5780601f10611e5157610100808354040283529160200191611e7c565b820191906000526020600020905b815481529060010190602001808311611e5f57829003601f168201915b50505050508152602001600882018054611e9590613dcb565b80601f0160208091040260200160405190810160405280929190818152602001828054611ec190613dcb565b8015611f0e5780601f10611ee357610100808354040283529160200191611f0e565b820191906000526020600020905b815481529060010190602001808311611ef157829003601f168201915b5050505050815250509050919050565b606060056000838152602001908152602001600020805480602002602001604051908101604052809291908181526020016000905b828210156121ba5783829060005260206000209060080201604051806101000160405290816000820160009054906101000a900473ffffffffffffffffffffffffffffffffffffffff1673ffffffffffffffffffffffffffffffffffffffff1673ffffffffffffffffffffffffffffffffffffffff1681526020016001820154815260200160028201548152602001600382018054611ff190613dcb565b80601f016020809104026020016040519081016040528092919081815260200182805461201d90613dcb565b801561206a5780601f1061203f5761010080835404028352916020019161206a565b820191906000526020600020905b81548152906001019060200180831161204d57829003601f168201915b5050505050815260200160048201805461208390613dcb565b80601f01602080910402602001604051908101604052809291908181526020018280546120af90613dcb565b80156120fc5780601f106120d1576101008083540402835291602001916120fc565b820191906000526020600020905b8154815290600101906020018083116120df57829003601f168201915b5050505050815260200160058201805461211590613dcb565b80601f016020809104026020016040519081016040528092919081815260200182805461214190613dcb565b801561218e5780601f106121635761010080835404028352916020019161218e565b820191906000526020600020905b81548152906001019060200180831161217157829003601f168201915b505050505081526020016006820154815260200160078201548152505081526020019060010190611f53565b505050509050919050565b600d5481565b6121d361294b565b600e54811115612218576040517f08c379a000000000000000000000000000000000000000000000000000000000815260040161220f9061398b565b60405180910390fd5b80600d8190555050565b600e5481565b61223061294b565b6000600a60008373ffffffffffffffffffffffffffffffffffffffff1673ffffffffffffffffffffffffffffffffffffffff16815260200190815260200160002060006101000a81548160ff02191690831515021790555050565b6060600760008373ffffffffffffffffffffffffffffffffffffffff1673ffffffffffffffffffffffffffffffffffffffff168152602001908152602001600020805480602002602001604051908101604052809291908181526020016000905b828210156123885783829060005260206000209060030201604051806060016040529081600082015481526020016001820160009054906101000a900473ffffffffffffffffffffffffffffffffffffffff1673ffffffffffffffffffffffffffffffffffffffff1673ffffffffffffffffffffffffffffffffffffffff168152602001600282015481525050815260200190600101906122ec565b505050509050919050565b6060600560008381526020019081526020016000206000815481106123e1577f4e487b7100000000000000000000000000000000000000000000000000000000600052603260045260246000fd5b906000526020600020906008020160010154341015612435576040517f08c379a000000000000000000000000000000000000000000000000000000000815260040161242c90613a2b565b60405180910390fd5b6000805b600760003373ffffffffffffffffffffffffffffffffffffffff1673ffffffffffffffffffffffffffffffffffffffff1681526020019081526020016000208054905081101561253557600760003373ffffffffffffffffffffffffffffffffffffffff1673ffffffffffffffffffffffffffffffffffffffff16815260200190815260200160002081815481106124fa577f4e487b7100000000000000000000000000000000000000000000000000000000600052603260045260246000fd5b90600052602060002090600302016000015484141561252257818061251e90613e2e565b9250505b808061252d90613e2e565b915050612439565b5060008114156126fa57600760003373ffffffffffffffffffffffffffffffffffffffff1673ffffffffffffffffffffffffffffffffffffffff16815260200190815260200160002060405180606001604052808581526020013373ffffffffffffffffffffffffffffffffffffffff1681526020014281525090806001815401808255809150506001900390600052602060002090600302016000909190919091506000820151816000015560208201518160010160006101000a81548173ffffffffffffffffffffffffffffffffffffffff021916908373ffffffffffffffffffffffffffffffffffffffff1602179055506040820151816002015550506126bc60056000858152602001908152602001600020600081548110612684577f4e487b7100000000000000000000000000000000000000000000000000000000600052603260045260246000fd5b906000526020600020906008020160000160009054906101000a900473ffffffffffffffffffffffffffffffffffffffff1634612a8d565b6040518060400160405280601b81526020017f436f6e74656e7420426f756768742073756363657366756c6c79210000000000815250915050612735565b6040517f08c379a000000000000000000000000000000000000000000000000000000000815260040161272c906139cb565b60405180910390fd5b919050565b60606002805480602002602001604051908101604052809291908181526020016000905b828210156128be57838290600052602060002090600302016040518060600160405290816000820154815260200160018201805461279b90613dcb565b80601f01602080910402602001604051908101604052809291908181526020018280546127c790613dcb565b80156128145780601f106127e957610100808354040283529160200191612814565b820191906000526020600020905b8154815290600101906020018083116127f757829003601f168201915b5050505050815260200160028201805461282d90613dcb565b80601f016020809104026020016040519081016040528092919081815260200182805461285990613dcb565b80156128a65780601f1061287b576101008083540402835291602001916128a6565b820191906000526020600020905b81548152906001019060200180831161288957829003601f168201915b5050505050815250508152602001906001019061275e565b50505050905090565b6128cf61294b565b600073ffffffffffffffffffffffffffffffffffffffff168173ffffffffffffffffffffffffffffffffffffffff16141561293f576040517f08c379a00000000000000000000000000000000000000000000000000000000081526004016129369061396b565b60405180910390fd5b612948816129c9565b50565b612953612c20565b73ffffffffffffffffffffffffffffffffffffffff166129716119b5565b73ffffffffffffffffffffffffffffffffffffffff16146129c7576040517f08c379a00000000000000000000000000000000000000000000000000000000081526004016129be906139eb565b60405180910390fd5b565b60008060009054906101000a900473ffffffffffffffffffffffffffffffffffffffff169050816000806101000a81548173ffffffffffffffffffffffffffffffffffffffff021916908373ffffffffffffffffffffffffffffffffffffffff1602179055508173ffffffffffffffffffffffffffffffffffffffff168173ffffffffffffffffffffffffffffffffffffffff167f8be0079c531659141344cd1fd0a4f28419497f9722a3daafe3b4186f6b6457e060405160405180910390a35050565b60006064600d546064612aa09190613cfb565b83612aab9190613ca1565b612ab59190613c70565b905060006064600d5484612ac99190613ca1565b612ad39190613c70565b905060008473ffffffffffffffffffffffffffffffffffffffff1683604051612afb9061385b565b60006040518083038185875af1925050503d8060008114612b38576040519150601f19603f3d011682016040523d82523d6000602084013e612b3d565b606091505b505090506000600f60009054906101000a900473ffffffffffffffffffffffffffffffffffffffff1673ffffffffffffffffffffffffffffffffffffffff1683604051612b899061385b565b60006040518083038185875af1925050503d8060008114612bc6576040519150601f19603f3d011682016040523d82523d6000602084013e612bcb565b606091505b50509050818015612bd95750805b612c18576040517f08c379a0000000000000000000000000000000000000000000000000000000008152600401612c0f90613a4b565b60405180910390fd5b505050505050565b600033905090565b828054612c3490613dcb565b90600052602060002090601f016020900481019282612c565760008555612c9d565b82601f10612c6f57805160ff1916838001178555612c9d565b82800160010185558215612c9d579182015b82811115612c9c578251825591602001919060010190612c81565b5b509050612caa9190612d10565b5090565b604051806101200160405280600073ffffffffffffffffffffffffffffffffffffffff16815260200160608152602001606081526020016060815260200160608152602001606081526020016060815260200160608152602001606081525090565b5b80821115612d29576000816000905550600101612d11565b5090565b6000612d40612d3b84613acd565b613aa8565b905082815260208101848484011115612d5857600080fd5b612d63848285613d89565b509392505050565b600081359050612d7a816140b5565b92915050565b600081359050612d8f816140cc565b92915050565b600082601f830112612da657600080fd5b8135612db6848260208601612d2d565b91505092915050565b600081359050612dce816140e3565b92915050565b600060208284031215612de657600080fd5b6000612df484828501612d6b565b91505092915050565b600060208284031215612e0f57600080fd5b6000612e1d84828501612d80565b91505092915050565b60008060008060008060008060006101208a8c031215612e4557600080fd5b6000612e538c828d01612d6b565b99505060208a013567ffffffffffffffff811115612e7057600080fd5b612e7c8c828d01612d95565b98505060408a013567ffffffffffffffff811115612e9957600080fd5b612ea58c828d01612d95565b97505060608a013567ffffffffffffffff811115612ec257600080fd5b612ece8c828d01612d95565b96505060808a013567ffffffffffffffff811115612eeb57600080fd5b612ef78c828d01612d95565b95505060a08a013567ffffffffffffffff811115612f1457600080fd5b612f208c828d01612d95565b94505060c08a013567ffffffffffffffff811115612f3d57600080fd5b612f498c828d01612d95565b93505060e08a013567ffffffffffffffff811115612f6657600080fd5b612f728c828d01612d95565b9250506101008a013567ffffffffffffffff811115612f9057600080fd5b612f9c8c828d01612d95565b9150509295985092959850929598565b60008060408385031215612fbf57600080fd5b600083013567ffffffffffffffff811115612fd957600080fd5b612fe585828601612d95565b925050602083013567ffffffffffffffff81111561300257600080fd5b61300e85828601612d95565b9150509250929050565b60006020828403121561302a57600080fd5b600061303884828501612dbf565b91505092915050565b600080600080600060a0868803121561305957600080fd5b600061306788828901612dbf565b955050602086013567ffffffffffffffff81111561308457600080fd5b61309088828901612d95565b945050604086013567ffffffffffffffff8111156130ad57600080fd5b6130b988828901612d95565b935050606086013567ffffffffffffffff8111156130d657600080fd5b6130e288828901612d95565b92505060806130f388828901612dbf565b9150509295509295909350565b600061310c83836134fa565b905092915050565b60006131208383613551565b905092915050565b6000613134838361360f565b905092915050565b600061314883836137fb565b60608301905092915050565b61315d81613d41565b82525050565b61316c81613d2f565b82525050565b61317b81613d2f565b82525050565b600061318c82613b3e565b6131968185613ba9565b9350836020820285016131a885613afe565b8060005b858110156131e457848403895281516131c58582613100565b94506131d083613b75565b925060208a019950506001810190506131ac565b50829750879550505050505092915050565b600061320182613b49565b61320b8185613bba565b93508360208202850161321d85613b0e565b8060005b85811015613259578484038952815161323a8582613114565b945061324583613b82565b925060208a01995050600181019050613221565b50829750879550505050505092915050565b600061327682613b54565b6132808185613bcb565b93508360208202850161329285613b1e565b8060005b858110156132ce57848403895281516132af8582613128565b94506132ba83613b8f565b925060208a01995050600181019050613296565b50829750879550505050505092915050565b60006132eb82613b5f565b6132f58185613bdc565b935061330083613b2e565b8060005b83811015613331578151613318888261313c565b975061332383613b9c565b925050600181019050613304565b5085935050505092915050565b61334781613d53565b82525050565b600061335882613b6a565b6133628185613bf8565b9350613372818560208601613d98565b61337b81613f33565b840191505092915050565b600061339182613b6a565b61339b8185613c09565b93506133ab818560208601613d98565b6133b481613f33565b840191505092915050565b60006133cc602683613c09565b91506133d782613f44565b604082019050919050565b60006133ef602083613c09565b91506133fa82613f93565b602082019050919050565b6000613412601483613c09565b915061341d82613fbc565b602082019050919050565b6000613435601d83613c09565b915061344082613fe5565b602082019050919050565b6000613458602083613c09565b91506134638261400e565b602082019050919050565b600061347b601a83613c09565b915061348682614037565b602082019050919050565b600061349e601483613c09565b91506134a982614060565b602082019050919050565b60006134c1600083613bed565b91506134cc82614089565b600082019050919050565b60006134e4601083613c09565b91506134ef8261408c565b602082019050919050565b6000606083016000830151613512600086018261383d565b506020830151848203602086015261352a828261334d565b91505060408301518482036040860152613544828261334d565b9150508091505092915050565b60006101008301600083015161356a6000860182613163565b50602083015161357d602086018261383d565b506040830151613590604086018261383d565b50606083015184820360608601526135a8828261334d565b915050608083015184820360808601526135c2828261334d565b91505060a083015184820360a08601526135dc828261334d565b91505060c08301516135f160c086018261383d565b5060e083015161360460e086018261383d565b508091505092915050565b6000610120830160008301516136286000860182613163565b5060208301518482036020860152613640828261334d565b9150506040830151848203604086015261365a828261334d565b91505060608301518482036060860152613674828261334d565b9150506080830151848203608086015261368e828261334d565b91505060a083015184820360a08601526136a8828261334d565b91505060c083015184820360c08601526136c2828261334d565b91505060e083015184820360e08601526136dc828261334d565b9150506101008301518482036101008601526136f8828261334d565b9150508091505092915050565b60006101208301600083015161371e6000860182613163565b5060208301518482036020860152613736828261334d565b91505060408301518482036040860152613750828261334d565b9150506060830151848203606086015261376a828261334d565b91505060808301518482036080860152613784828261334d565b91505060a083015184820360a086015261379e828261334d565b91505060c083015184820360c08601526137b8828261334d565b91505060e083015184820360e08601526137d2828261334d565b9150506101008301518482036101008601526137ee828261334d565b9150508091505092915050565b606082016000820151613811600085018261383d565b5060208201516138246020850182613163565b506040820151613837604085018261383d565b50505050565b61384681613d7f565b82525050565b61385581613d7f565b82525050565b6000613866826134b4565b9150819050919050565b60006020820190506138856000830184613172565b92915050565b60006020820190506138a06000830184613154565b92915050565b600060208201905081810360008301526138c08184613181565b905092915050565b600060208201905081810360008301526138e281846131f6565b905092915050565b60006020820190508181036000830152613904818461326b565b905092915050565b6000602082019050818103600083015261392681846132e0565b905092915050565b6000602082019050613943600083018461333e565b92915050565b600060208201905081810360008301526139638184613386565b905092915050565b60006020820190508181036000830152613984816133bf565b9050919050565b600060208201905081810360008301526139a4816133e2565b9050919050565b600060208201905081810360008301526139c481613405565b9050919050565b600060208201905081810360008301526139e481613428565b9050919050565b60006020820190508181036000830152613a048161344b565b9050919050565b60006020820190508181036000830152613a248161346e565b9050919050565b60006020820190508181036000830152613a4481613491565b9050919050565b60006020820190508181036000830152613a64816134d7565b9050919050565b60006020820190508181036000830152613a858184613705565b905092915050565b6000602082019050613aa2600083018461384c565b92915050565b6000613ab2613ac3565b9050613abe8282613dfd565b919050565b6000604051905090565b600067ffffffffffffffff821115613ae857613ae7613f04565b5b613af182613f33565b9050602081019050919050565b6000819050602082019050919050565b6000819050602082019050919050565b6000819050602082019050919050565b6000819050602082019050919050565b600081519050919050565b600081519050919050565b600081519050919050565b600081519050919050565b600081519050919050565b6000602082019050919050565b6000602082019050919050565b6000602082019050919050565b6000602082019050919050565b600082825260208201905092915050565b600082825260208201905092915050565b600082825260208201905092915050565b600082825260208201905092915050565b600081905092915050565b600082825260208201905092915050565b600082825260208201905092915050565b6000613c2582613d7f565b9150613c3083613d7f565b9250827fffffffffffffffffffffffffffffffffffffffffffffffffffffffffffffffff03821115613c6557613c64613e77565b5b828201905092915050565b6000613c7b82613d7f565b9150613c8683613d7f565b925082613c9657613c95613ea6565b5b828204905092915050565b6000613cac82613d7f565b9150613cb783613d7f565b9250817fffffffffffffffffffffffffffffffffffffffffffffffffffffffffffffffff0483118215151615613cf057613cef613e77565b5b828202905092915050565b6000613d0682613d7f565b9150613d1183613d7f565b925082821015613d2457613d23613e77565b5b828203905092915050565b6000613d3a82613d5f565b9050919050565b6000613d4c82613d5f565b9050919050565b60008115159050919050565b600073ffffffffffffffffffffffffffffffffffffffff82169050919050565b6000819050919050565b82818337600083830152505050565b60005b83811015613db6578082015181840152602081019050613d9b565b83811115613dc5576000848401525b50505050565b60006002820490506001821680613de357607f821691505b60208210811415613df757613df6613ed5565b5b50919050565b613e0682613f33565b810181811067ffffffffffffffff82111715613e2557613e24613f04565b5b80604052505050565b6000613e3982613d7f565b91507fffffffffffffffffffffffffffffffffffffffffffffffffffffffffffffffff821415613e6c57613e6b613e77565b5b600182019050919050565b7f4e487b7100000000000000000000000000000000000000000000000000000000600052601160045260246000fd5b7f4e487b7100000000000000000000000000000000000000000000000000000000600052601260045260246000fd5b7f4e487b7100000000000000000000000000000000000000000000000000000000600052602260045260246000fd5b7f4e487b7100000000000000000000000000000000000000000000000000000000600052604160045260246000fd5b6000601f19601f8301169050919050565b7f4f776e61626c653a206e6577206f776e657220697320746865207a65726f206160008201527f6464726573730000000000000000000000000000000000000000000000000000602082015250565b7f4665652063616e6e6f7420657863656564204d41585f4645452076616c756521600082015250565b7f596f75277265206e6f7420612043726561746f72000000000000000000000000600082015250565b7f596f7520616c7265616479206f776e207468697320636f6e74656e7421000000600082015250565b7f4f776e61626c653a2063616c6c6572206973206e6f7420746865206f776e6572600082015250565b7f596f75277265206e6f7420616c6c6f77656420746f20706f7374000000000000600082015250565b7f496e73756666696369656e742042616c616e6365000000000000000000000000600082015250565b50565b7f5472616e73666572206661696c65642e00000000000000000000000000000000600082015250565b6140be81613d2f565b81146140c957600080fd5b50565b6140d581613d41565b81146140e057600080fd5b50565b6140ec81613d7f565b81146140f757600080fd5b5056fea2646970667358221220e523e641881226e274bff76edb587219132f2116d8429f4917a84cf18a08014664736f6c63430008040033",
  "linkReferences": {},
  "deployedLinkReferences": {}
}